:100000000C9435000C949B020C945D000C945D00E4
:100010000C945D000C945D000C945D000C94250222
:100020000C945D000C945D000C945D000C946802CF
:100030000C945D000C945D000C945D000C945D00CC
:100040000C9483010C945D000C94F3010C94CD018D
:100050000C945D000C945D000C945D000C945D00AC
:100060000C945D000C945D00AF0411241FBECFEF13
:10007000D8E0DEBFCDBF11E0A0E0B1E0EEE8FEE0E9
:1000800002C005900D92A632B107D9F721E0A6E291
:10009000B1E001C01D92A53DB207E1F710E0C5E354
:1000A000D0E004C02197FE010E943A07C433D10773
:1000B000C9F70E9403030C9445070C940000CF92EB
:1000C000DF92EF92FF920F931F93CF93DF936C0118
:1000D0007A018B01C0E0D0E0CE15DF0581F0D801B8
:1000E0006D918D01D601ED91FC910190F081E02D93
:1000F000C6010995892B11F02196EECF7E01C7012B
:10010000DF91CF911F910F91FF90EF90DF90CF90F3
:100110000895089580E090E00895FC01538D448D8A
:10012000252F30E0842F90E0821B930B541710F0A2
:10013000CF96089501970895FC01918D828D9817AF
:1001400061F0828DDF01A80FB11D5D968C91928DBB
:100150009F5F9F73928F90E008958FEF9FEF0895B8
:10016000FC01918D828D981731F0828DE80FF11D81
:10017000858D90E008958FEF9FEF0895FC01918D9C
:10018000228D892F90E0805C9F4F821B91098F7395
:100190009927089588E391E00E94BE0021E0892B11
:1001A00009F420E0822F0895FC01848DDF01A80F5F
:1001B000B11DA35ABF4F2C91848D90E001968F738F
:1001C0009927848FA689B7892C93A089B1898C91AE
:1001D000837080648C93938D848D981306C00288FD
:1001E000F389E02D80818F7D80830895EF92FF92C7
:1001F0000F931F93CF93DF93EC0181E0888F9B8D4A
:100200008C8D981305C0E889F989808185FD26C009
:10021000F62E0B8D10E00F5F1F4F0F731127E02E8E
:100220008C8DE8120CC00FB607FCFACFE889F9896B
:10023000808185FFF5CFCE010E94D400F1CF8B8D58
:10024000FE01E80FF11DE35AFF4FF0829FB7F894CB
:100250000B8FEA89FB89808180620AC09FB7F8947E
:10026000EE89FF896083E889F989808183708064E1
:1002700080839FBF81E090E0DF91CF911F910F912C
:10028000FF90EF900895CF93DF93EC01888D882342
:10029000C9F0EA89FB89808185FD05C0A889B989F3
:1002A0008C9186FD0FC00FB607FCF5CF808185FFCE
:1002B000F2CFA889B9898C9185FFEDCFCE010E943C
:1002C000D400E7CFDF91CF91089580E090E0892BB3
:1002D00029F00E94CA0081110C9400000895009733
:1002E00069F0FC0101900020E9F73197AF01481B4C
:1002F000590BBC0188E391E00C945F0080E090E032
:1003000008950E9440071F920F920FB60F9211247A
:100310002F933F938F939F93AF93BF93809134011B
:1003200090913501A0913601B091370130913301A0
:1003300023E0230F2D3720F40196A11DB11D05C028
:1003400026E8230F0296A11DB11D2093330180934F
:10035000340190933501A0933601B0933701809119
:100360002F0190913001A0913101B091320101969D
:10037000A11DB11D80932F0190933001A0933101F5
:10038000B0933201BF91AF919F918F913F912F9187
:100390000F900FBE0F901F9018951F920F920FB6DF
:1003A0000F9211242F933F934F935F936F937F93FB
:1003B0008F939F93AF93BF93EF93FF9388E391E065
:1003C0000E94D400FF91EF91BF91AF919F918F91C7
:1003D0007F916F915F914F913F912F910F900FBE41
:1003E0000F901F9018951F920F920FB60F92112425
:1003F0002F938F939F93EF93FF93E0914801F09198
:1004000049018081E0914E01F0914F0182FD12C0BF
:100410009081809151018F5F8F73209152018217DB
:1004200051F0E0915101F0E0E85CFE4F958F809330
:10043000510101C08081FF91EF919F918F912F9188
:100440000F900FBE0F901F9018951F920F920FB62E
:100450000F9211248F939F93AF93BF9380912601A6
:1004600090912701A0912801B09129010196A11D29
:10047000B11D8093260190932701A0932801B0938A
:10048000290180379105A105B10528F495B180E2D5
:10049000892785B914C095B180E2892785B98091F3
:1004A00070008D7F8093700080916F0082608093D8
:1004B0006F0084E590E09093850080938400BF9165
:1004C000AF919F918F910F900FBE0F901F90189535
:1004D0001F920F920FB60F9211248F93AF93BF9379
:1004E000EF93FF93EFE6F0E080818D7F8083A4E8B7
:1004F000B0E011961C921E9280818D7F80831196B0
:100500001C921E921092B2001092260110922701A6
:100510001092280110922901E0E7F0E080818260CA
:100520008083FF91EF91BF91AF918F910F900FBE9C
:100530000F901F9018951F920F920FB60F921124D3
:100540002F933F934F935F936F937F938F939F93DB
:10055000AF93BF93EF93FF938FB7F894E4E8F0E085
:10056000608171818FBFAFE6B0E08C918D7F8C93FD
:10057000118210826F5F7F4F80E090E00E94EF0554
:1005800020E030E040E853E40E94A60620E034E298
:1005900044E75BE40E944E0520E030E040E05FE38A
:1005A0000E94A60620E030E84BEB54E40E94A60629
:1005B00060932A0170932B0180932C0190932D015D
:1005C0001092B20010922601109227011092280179
:1005D00010922901E0E7F0E080818260808381E071
:1005E00080932E01FF91EF91BF91AF919F918F91D9
:1005F0007F916F915F914F913F912F910F900FBE1F
:100600000F901F901895CF93DF93CDB7DEB7A597C6
:100610000FB6F894DEBF0FBECDBF789484B582606C
:1006200084BD84B5816084BD85B5826085BD85B596
:10063000816085BD80916E00816080936E00109214
:10064000810080918100826080938100809181008F
:100650008160809381008091800081608093800020
:100660008091B10084608093B1008091B00081607E
:100670008093B00080917A00846080937A008091AA
:100680007A00826080937A0080917A008160809302
:100690007A0080917A00806880937A001092C1007D
:1006A000E0914801F091490192E09083E09144018A
:1006B000F09145011082E0914601F09147018FECE5
:1006C000808310925001E0914C01F0914D0186E041
:1006D0008083E0914A01F0914B01808180618083A9
:1006E000E0914A01F0914B01808188608083E09124
:1006F0004A01F0914B01808180688083E0914A013A
:10070000F0914B0180818F7D808310928100109247
:1007100080008091810088608093810080918100B9
:100720008460809381002CE130E130938900209334
:1007300088001092B1001092B0008091B1008160E9
:100740008093B1008091B00082608093B0002D9AB8
:1007500087EC8093B300809170008260809370007A
:100760009093690081E08DBB82E191E08AA38AE0E9
:10077000882E912CA12CB12C80912E01882309F474
:10078000EBC09FB79BA3F89440902A0150902B0197
:1007900060902C0170902D01A3019201C301B20160
:1007A0000E941307882319F087E191E01AC07301B2
:1007B0006201E894F7F82FEF3FEF4FE75FE7C701DB
:1007C000B6010E94130781110FC02FEF3FEF4FE7D3
:1007D0005FE7C701B6010E94490518162CF48BE1AA
:1007E00091E00E946F01B0C02FEF3FEF4FE75FE451
:1007F000C301B2010E94A10618161CF48FE191E01A
:10080000F0CF2FEF3FEF4FE75FECC301B2010E9443
:10081000490587FDF3CF20E030E0A901C301B20113
:100820000E94490587FF09C06DE288E391E00E94BC
:10083000F60077FA709477F8709410E060E070E05A
:1008400080E09FE3EAA11E1740F420E030E040E2A0
:1008500051E40E944E051F5FF5CFA30192010E9453
:10086000DD042B013C010E94C005362EC72ED82E78
:10087000F92E19A2262F372F482F592F8E010F5DE1
:100880001F4F0CA31DA3CA01B901A50194010E9429
:100890001807605DF80162938F012115310541054C
:1008A000510589F7CF010E946F01FAA1FF2309F4D6
:1008B0004BC0632D7C2D8D2D9F2D0E94EF059B013C
:1008C000AC01C301B2010E94DC042B013C016EE2C9
:1008D00088E391E00E94F60082E191E0F82E20E0AA
:1008E00030E040E251E4C301B2010E94A6062B01B0
:1008F0003C010E94C0059B0140E050E019A20CA100
:100900001DA11B016A01CA01B901A50194010E9440
:100910001807605DF80162938F01211531054105CB
:10092000510589F7CF010E946F01B101C6010E94F4
:10093000EF059B01AC01C301B2010E94DC042B0155
:100940003C01FA94F110CBCF83E291E00E946F0159
:10095000FBA1FFBF10922E010E9465010DCFE8E3BD
:10096000F1E01382128288EE93E0A0E0B0E084838D
:100970009583A683B78384E091E09183808385EC9F
:1009800090E09587848784EC90E09787868780EC59
:1009900090E0918B808B81EC90E0938B828B82EC4A
:1009A00090E0958B848B86EC90E0978B868B118EF4
:1009B000128E138E148E08955058BB27AA270E94BA
:1009C000F4040C9467060E94590638F00E946006F1
:1009D00020F039F49F3F19F426F40C9456060EF4D7
:1009E000E095E7FB0C945006E92F0E94780658F337
:1009F000BA17620773078407950720F079F4A6F504
:100A00000C949A060EF4E0950B2EBA2FA02D0B0134
:100A1000B90190010C01CA01A0011124FF27591B43
:100A200099F0593F50F4503E68F11A16F040A22F49
:100A3000232F342F4427585FF3CF469537952795BA
:100A4000A795F0405395C9F77EF41F16BA0B620BB9
:100A5000730B840BBAF09150A1F0FF0FBB1F661F00
:100A6000771F881FC2F70EC0BA0F621F731F841F43
:100A700048F4879577956795B795F7959E3F08F069
:100A8000B0CF9395880F08F09927EE0F979587952B
:100A900008950E942C0608F481E008950E946205E2
:100AA0000C9467060E94600658F00E94590640F0B8
:100AB00029F45F3F29F00C94500651110C949B06C9
:100AC0000C9456060E94780668F39923B1F35523D7
:100AD00091F3951B550BBB27AA2762177307840751
:100AE00038F09F5F5F4F220F331F441FAA1FA9F3E7
:100AF00035D00E2E3AF0E0E832D091505040E695D5
:100B0000001CCAF72BD0FE2F29D0660F771F881F35
:100B1000BB1F261737074807AB07B0E809F0BB0B28
:100B2000802DBF01FF2793585F4F3AF09E3F51053C
:100B300078F00C9450060C949B065F3FE4F3983ECB
:100B4000D4F3869577956795B795F7959F5FC9F725
:100B5000880F911D9695879597F90895E1E0660FA6
:100B6000771F881FBB1F621773078407BA0720F01F
:100B7000621B730B840BBA0BEE1F88F7E095089588
:100B80000E94800688F09F5798F0B92F9927B75197
:100B9000B0F0E1F0660F771F881F991F1AF0BA9521
:100BA000C9F714C0B13091F00E949A06B1E00895DF
:100BB0000C949A06672F782F8827B85F39F0B93FD1
:100BC000CCF3869577956795B395D9F73EF49095D4
:100BD0008095709561957F4F8F4F9F4F0895E89452
:100BE00009C097FB3EF490958095709561957F4F75
:100BF0008F4F9F4F9923A9F0F92F96E9BB27939523
:100C0000F695879577956795B795F111F8CFFAF432
:100C1000BB0F11F460FF1BC06F5F7F4F8F4F9F4F63
:100C200016C0882311F096E911C0772321F09EE8C1
:100C3000872F762F05C0662371F096E8862F70E027
:100C400060E02AF09A95660F771F881FDAF7880F01
:100C50009695879597F90895990F0008550FAA0B57
:100C6000E0E8FEEF16161706E807F907C0F01216BF
:100C70001306E407F50798F0621B730B840B950BC2
:100C800039F40A2661F0232B242B252B21F4089517
:100C90000A2609F4A140A6958FEF811D811D0895B4
:100CA00097F99F6780E870E060E008959FEF80EC1F
:100CB000089500240A9416161706180609060895C2
:100CC00000240A9412161306140605060895092E28
:100CD0000394000C11F4882352F0BB0F40F4BF2B97
:100CE00011F460FF04C06F5F7F4F8F4F9F4F0895D7
:100CF00057FD9058440F551F59F05F3F71F04795CD
:100D0000880F97FB991F61F09F3F79F087950895B1
:100D1000121613061406551FF2CF4695F1DF08C0D0
:100D2000161617061806991FF1CF869571056105ED
:100D300008940895E894BB2766277727CB0197F995
:100D400008950E942C0608F48FEF08950E94B906BA
:100D50000C9467060E94590638F00E94600620F045
:100D6000952311F00C9450060C94560611240C9403
:100D70009B060E94780670F3959FC1F3950F50E093
:100D8000551F629FF001729FBB27F00DB11D639F3D
:100D9000AA27F00DB11DAA1F649F6627B00DA11DE3
:100DA000661F829F2227B00DA11D621F739FB00D89
:100DB000A11D621F839FA00D611D221F749F3327F9
:100DC000A00D611D231F849F600D211D822F762F92
:100DD0006A2F11249F5750409AF0F1F088234AF06F
:100DE000EE0FFF1FBB1F661F771F881F91505040DB
:100DF000A9F79E3F510580F00C9450060C949B0679
:100E00005F3FE4F3983ED4F3869577956795B79561
:100E1000F795E7959F5FC1F7FE2B880F911D96957B
:100E2000879597F908950E942C06880B990B0895D1
:100E3000A1E21A2EAA1BBB1BFD010DC0AA1FBB1FDE
:100E4000EE1FFF1FA217B307E407F50720F0A21B50
:100E5000B30BE40BF50B661F771F881F991F1A94BD
:100E600069F760957095809590959B01AC01BD01E7
:100E7000CF010895EE0FFF1F0590F491E02D099426
:0E0E800081E090E0F8940C944507F894FFCFC1
:100E8E0000000000F6005F008D004301BE009C00D4
:100E9E00B000252E3666006E616E00696E66006FBC
:060EAE007666000D0A004B
:00000001FF
