:100000000C9435000C9499020C945D000C945D00E6
:100010000C945D000C945D000C945D000C94250222
:100020000C945D000C945D000C945D000C946602D1
:100030000C945D000C945D000C945D000C945D00CC
:100040000C9483010C945D000C94F3010C94CD018D
:100050000C945D000C945D000C945D000C945D00AC
:100060000C945D000C945D00BC0411241FBECFEF06
:10007000D8E0DEBFCDBF11E0A0E0B1E0E8EAFEE0ED
:1000800002C005900D92A632B107D9F721E0A6E291
:10009000B1E001C01D92A03DB207E1F710E0C5E359
:1000A000D0E004C02197FE010E944707C433D10766
:1000B000C9F70E9412040C9452070C940000CF92CE
:1000C000DF92EF92FF920F931F93CF93DF936C0118
:1000D0007A018B01C0E0D0E0CE15DF0581F0D801B8
:1000E0006D918D01D601ED91FC910190F081E02D93
:1000F000C6010995892B11F02196EECF7E01C7012B
:10010000DF91CF911F910F91FF90EF90DF90CF90F3
:100110000895089580E090E00895FC01538D448D8A
:10012000252F30E0842F90E0821B930B541710F0A2
:10013000CF96089501970895FC01918D828D9817AF
:1001400061F0828DDF01A80FB11D5D968C91928DBB
:100150009F5F9F73928F90E008958FEF9FEF0895B8
:10016000FC01918D828D981731F0828DE80FF11D81
:10017000858D90E008958FEF9FEF0895FC01918D9C
:10018000228D892F90E0805C9F4F821B91098F7395
:100190009927089583E391E00E94BE0021E0892B16
:1001A00009F420E0822F0895FC01848DDF01A80F5F
:1001B000B11DA35ABF4F2C91848D90E001968F738F
:1001C0009927848FA689B7892C93A089B1898C91AE
:1001D000837080648C93938D848D981306C00288FD
:1001E000F389E02D80818F7D80830895EF92FF92C7
:1001F0000F931F93CF93DF93EC0181E0888F9B8D4A
:100200008C8D981305C0E889F989808185FD26C009
:10021000F62E0B8D10E00F5F1F4F0F731127E02E8E
:100220008C8DE8120CC00FB607FCFACFE889F9896B
:10023000808185FFF5CFCE010E94D400F1CF8B8D58
:10024000FE01E80FF11DE35AFF4FF0829FB7F894CB
:100250000B8FEA89FB89808180620AC09FB7F8947E
:10026000EE89FF896083E889F989808183708064E1
:1002700080839FBF81E090E0DF91CF911F910F912C
:10028000FF90EF900895CF93DF93EC01888D882342
:10029000C9F0EA89FB89808185FD05C0A889B989F3
:1002A0008C9186FD0FC00FB607FCF5CF808185FFCE
:1002B000F2CFA889B9898C9185FFEDCFCE010E943C
:1002C000D400E7CFDF91CF91089580E090E0892BB3
:1002D00029F00E94CA0081110C9400000895009733
:1002E00069F0FC0101900020E9F73197AF01481B4C
:1002F000590BBC0183E391E00C945F0080E090E037
:1003000008950E944D071F920F920FB60F9211246D
:100310002F933F938F939F93AF93BF9380912F0120
:1003200090913001A0913101B091320130912E01B4
:1003300023E0230F2D3720F40196A11DB11D05C028
:1003400026E8230F0296A11DB11D20932E01809354
:100350002F0190933001A0933101B093320180912D
:100360002A0190912B01A0912C01B0912D010196B1
:10037000A11DB11D80932A0190932B01A0932C0104
:10038000B0932D01BF91AF919F918F913F912F918C
:100390000F900FBE0F901F9018951F920F920FB6DF
:1003A0000F9211242F933F934F935F936F937F93FB
:1003B0008F939F93AF93BF93EF93FF9383E391E06A
:1003C0000E94D400FF91EF91BF91AF919F918F91C7
:1003D0007F916F915F914F913F912F910F900FBE41
:1003E0000F901F9018951F920F920FB60F92112425
:1003F0002F938F939F93EF93FF93E0914301F0919D
:1004000044018081E0914901F0914A0182FD12C0CE
:10041000908180914C018F5F8F7320914D018217E5
:1004200051F0E0914C01F0E0ED5CFE4F958F809330
:100430004C0101C08081FF91EF919F918F912F918D
:100440000F900FBE0F901F9018951F920F920FB62E
:100450000F9211242F938F939F93AF93BF9380910B
:10046000260190912701A0912801B09129010196C0
:10047000A11DB11D8093260190932701A09328010F
:10048000B09329018B309140A105B10528F495B1B5
:1004900080E2892785B910C0809170008D7F80939C
:1004A000700080916F00826080936F008AE290E01C
:1004B0009093850080938400BF91AF919F918F911D
:1004C0002F910F900FBE0F901F9018951F920F92B3
:1004D0000FB60F9211248F93AF93BF93EF93FF93B7
:1004E000EFE6F0E080818D7F8083A4E8B0E0119694
:1004F0001C921E9280818D7F808311961C921E9289
:100500001092B20010922601109227011092280139
:1005100010922901E0E7F0E0808182608083FF9102
:10052000EF91BF91AF918F910F900FBE0F901F90E1
:1005300018951F920F920FB60F9211242F923F928F
:100540004F925F926F927F928F929F92AF92BF92E3
:10055000CF92DF92EF92FF920F931F932F933F93CF
:100560004F935F936F937F938F939F93AF93BF93BB
:10057000EF93FF93CF93DF93CDB7DEB7A297DEBFA4
:10058000CDBF8FB7F89460918400709185008FBFC4
:1005900080916F008D7F80936F0010928500109284
:1005A00084006F5F7F4F80E090E00E94FC0520E0B8
:1005B00030E040E853E40E94B30620E034E244E730
:1005C0005BE40E945B0520E030E040E05FE30E94D6
:1005D000B30620E030E84BEB54E40E94B3066B0115
:1005E0007C014B015C019B01AC010E942007882328
:1005F00019F087E191E01AC026013701E89477F8F5
:100600002FEF3FEF4FE75FE7C301B2010E942007E2
:1006100081110FC02FEF3FEF4FE75FE7C301B2013A
:100620000E94560518162CF48BE191E00E946F0190
:10063000BCC02FEF3FEF4FE75FE4C701B6010E9458
:10064000AE0618161CF48FE191E0F0CF2FEF3FEFCC
:100650004FE75FECC701B6010E94560587FDF3CF57
:1006600020E030E0A901C701B6010E94560587FFCE
:100670000BC06DE283E391E00E94F6004601570152
:10068000B7FAB094B7F8B09482E191E0682E10E028
:1006900060E070E080E09FE3161540F420E030E079
:1006A00040E251E40E945B051F5FF6CFA501940173
:1006B0000E94EA044B015C010E94CD05762EC72EF4
:1006C0008C0119A2262F372FAC017E0191E2E90E91
:1006D000F11CEAA2DF2C9AE0292E312C412C512C5E
:1006E000CA01B901A20191010E942507605DF701CD
:1006F00062937F01211531054105510589F7CF012D
:100700000E946F01662009F450C0672D7C2DC8013E
:100710000E94FC059B01AC01C501B4010E94E904E3
:100720004B015C016EE283E391E00E94F60082E1FE
:1007300091E0182F8AE0282E312C412C512C20E0FA
:1007400030E040E251E4C501B4010E94B3064B0120
:100750005C010E94CD059B0140E050E019A2EAA097
:10076000FD2C3B01C42E052FCA01B901A201910144
:100770000E942507605DF70162937F012115310515
:100780004105510589F7CF010E946F01B3018C2DFE
:10079000902F0E94FC059B01AC01C501B4010E9491
:1007A000E9044B015C01115051F683E291E00E9493
:1007B0006F011092B2001092260110922701109240
:1007C000280110922901809170008260809370004E
:1007D0002D9AA2960FB6F894DEBF0FBECDBFDF9163
:1007E000CF91FF91EF91BF91AF919F918F917F91A9
:1007F0006F915F914F913F912F911F910F91FF90BA
:10080000EF90DF90CF90BF90AF909F908F907F90B0
:100810006F905F904F903F902F900F900FBE0F9072
:100820001F901895789484B5826084BD84B58160EA
:1008300084BD85B5826085BD85B5816085BD8091AB
:100840006E00816080936E00109281008091810023
:10085000826080938100809181008160809381001B
:10086000809180008160809380008091B1008460DD
:100870008093B1008091B00081608093B00080913E
:100880007A00846080937A0080917A0082608093FD
:100890007A0080917A00816080937A0080917A005A
:1008A000806880937A001092C100E0914301F0913A
:1008B000440192E09083E0913F01F0914001108269
:1008C000E0914101F09142018FEC808310924B0145
:1008D000E0914701F091480186E08083E091450175
:1008E000F0914601808180618083E0914501F09123
:1008F0004601808188608083E0914501F091460146
:10090000808180688083E0914501F091460180817B
:100910008F7D8083109281001092800080918100F1
:100920008860809381008091810084608093810041
:100930002CE130E130938900209388001092B100BF
:100940001092B0008091B10081608093B1008091DD
:10095000B00082608093B0002D9A87E28093B3004C
:10096000809170008260809370009093690081E0B4
:100970008DBB0E946501FDCFE3E3F1E0138212829B
:1009800088EE93E0A0E0B0E084839583A683B783EC
:1009900084E091E09183808385EC90E09587848763
:1009A00084EC90E09787868780EC90E0918B808B39
:1009B00081EC90E0938B828B82EC90E0958B848B22
:1009C00086EC90E0978B868B118E128E138E148E90
:1009D00008955058BB27AA270E9401050C9474065D
:1009E0000E94660638F00E946D0620F039F49F3FA1
:1009F00019F426F40C9463060EF4E095E7FB0C94CE
:100A00005D06E92F0E94850658F3BA17620773073F
:100A10008407950720F079F4A6F50C94A7060EF448
:100A2000E0950B2EBA2FA02D0B01B90190010C01FE
:100A3000CA01A0011124FF27591B99F0593F50F416
:100A4000503E68F11A16F040A22F232F342F44276E
:100A5000585FF3CF469537952795A795F040539566
:100A6000C9F77EF41F16BA0B620B730B840BBAF036
:100A70009150A1F0FF0FBB1F661F771F881FC2F7A1
:100A80000EC0BA0F621F731F841F48F487957795B5
:100A90006795B795F7959E3F08F0B0CF9395880F6F
:100AA00008F09927EE0F9795879508950E943906CB
:100AB00008F481E008950E946F050C9474060E946A
:100AC0006D0658F00E94660640F029F45F3F29F059
:100AD0000C945D0651110C94A8060C9463060E94B8
:100AE000850668F39923B1F3552391F3951B550BB4
:100AF000BB27AA2762177307840738F09F5F5F4FF1
:100B0000220F331F441FAA1FA9F335D00E2E3AF02F
:100B1000E0E832D091505040E695001CCAF72BD047
:100B2000FE2F29D0660F771F881FBB1F2617370798
:100B30004807AB07B0E809F0BB0B802DBF01FF27CA
:100B400093585F4F3AF09E3F510578F00C945D0644
:100B50000C94A8065F3FE4F3983ED4F3869577950E
:100B60006795B795F7959F5FC9F7880F911D969583
:100B7000879597F90895E1E0660F771F881FBB1FDF
:100B8000621773078407BA0720F0621B730B840B8C
:100B9000BA0BEE1F88F7E09508950E948D0688F045
:100BA0009F5798F0B92F9927B751B0F0E1F0660F31
:100BB000771F881F991F1AF0BA95C9F714C0B13072
:100BC00091F00E94A706B1E008950C94A706672F44
:100BD000782F8827B85F39F0B93FCCF386957795A1
:100BE0006795B395D9F73EF490958095709561958A
:100BF0007F4F8F4F9F4F0895E89409C097FB3EF4B5
:100C000090958095709561957F4F8F4F9F4F992359
:100C1000A9F0F92F96E9BB279395F69587957795D7
:100C20006795B795F111F8CFFAF4BB0F11F460FF97
:100C30001BC06F5F7F4F8F4F9F4F16C0882311F0EF
:100C400096E911C0772321F09EE8872F762F05C003
:100C5000662371F096E8862F70E060E02AF09A959E
:100C6000660F771F881FDAF7880F9695879597F993
:100C70000895990F0008550FAA0BE0E8FEEF16162D
:100C80001706E807F907C0F012161306E407F50780
:100C900098F0621B730B840B950B39F40A2661F0F4
:100CA000232B242B252B21F408950A2609F4A14097
:100CB000A6958FEF811D811D089597F99F6780E8A4
:100CC00070E060E008959FEF80EC089500240A949E
:100CD0001616170618060906089500240A94121617
:100CE0001306140605060895092E0394000C11F44A
:100CF000882352F0BB0F40F4BF2B11F460FF04C0F7
:100D00006F5F7F4F8F4F9F4F089557FD9058440F4F
:100D1000551F59F05F3F71F04795880F97FB991F5A
:100D200061F09F3F79F08795089512161306140617
:100D3000551FF2CF4695F1DF08C0161617061806A4
:100D4000991FF1CF86957105610508940895E8947F
:100D5000BB2766277727CB0197F908950E943906AC
:100D600008F48FEF08950E94C6060C9474060E9442
:100D7000660638F00E946D0620F0952311F00C9461
:100D80005D060C94630611240C94A8060E94850647
:100D900070F3959FC1F3950F50E0551F629FF001CE
:100DA000729FBB27F00DB11D639FAA27F00DB11DE7
:100DB000AA1F649F6627B00DA11D661F829F222770
:100DC000B00DA11D621F739FB00DA11D621F839FF7
:100DD000A00D611D221F749F3327A00D611D231FCD
:100DE000849F600D211D822F762F6A2F11249F571B
:100DF00050409AF0F1F088234AF0EE0FFF1FBB1F1E
:100E0000661F771F881F91505040A9F79E3F5105DC
:100E100080F00C945D060C94A8065F3FE4F3983EC6
:100E2000D4F3869577956795B795F795E7959F5F86
:100E3000C1F7FE2B880F911D9695879597F9089518
:100E40000E943906880B990B0895A1E21A2EAA1B5D
:100E5000BB1BFD010DC0AA1FBB1FEE1FFF1FA2176A
:100E6000B307E407F50720F0A21BB30BE40BF50B67
:100E7000661F771F881F991F1A9469F760957095F0
:100E8000809590959B01AC01BD01CF010895EE0FB7
:100E9000FF1F0590F491E02D099481E090E0F89413
:080EA0000C945207F894FFCFF7
:100EA80000000000F6005F008D004301BE009C00BA
:100EB800B000252E3666006E616E00696E66006FA2
:060EC8007666000D0A0031
:00000001FF
