:100000000C9435000C94D0020C94A0020C945D006A
:100010000C945D000C945D000C945D000C943A020D
:100020000C945D000C945D000C945D000C946D02CA
:100030000C945D000C945D000C945D000C945D00CC
:100040000C9498010C945D000C9408020C94E2014D
:100050000C945D000C945D000C945D000C945D00AC
:100060000C945D000C945D00CD0411241FBECFEFF5
:10007000D8E0DEBFCDBF11E0A0E0B1E0EAECFEE0E9
:1000800002C005900D92A632B107D9F721E0A6E291
:10009000B1E001C01D92A43DB207E1F710E0C5E355
:1000A000D0E004C02197FE010E945807C433D10755
:1000B000C9F70E9426030C9463070C940000CF92AA
:1000C000DF92EF92FF920F931F93CF93DF936C0118
:1000D0007A018B01C0E0D0E0CE15DF0581F0D801B8
:1000E0006D918D01D601ED91FC910190F081E02D93
:1000F000C6010995892B11F02196EECF7E01C7012B
:10010000DF91CF911F910F91FF90EF90DF90CF90F3
:100110000895089580E090E00895FC01538D448D8A
:10012000252F30E0842F90E0821B930B541710F0A2
:10013000CF96089501970895FC01918D828D9817AF
:1001400061F0828DDF01A80FB11D5D968C91928DBB
:100150009F5F9F73928F90E008958FEF9FEF0895B8
:10016000FC01918D828D981731F0828DE80FF11D81
:10017000858D90E008958FEF9FEF0895FC01918D9C
:10018000228D892F90E0805C9F4F821B91098F7395
:100190009927089587E391E00E94BE0021E0892B12
:1001A00009F420E0822F0895FC01848DDF01A80F5F
:1001B000B11DA35ABF4F2C91848D90E001968F738F
:1001C0009927848FA689B7892C93A089B1898C91AE
:1001D000837080648C93938D848D981306C00288FD
:1001E000F389E02D80818F7D80830895EF92FF92C7
:1001F0000F931F93CF93DF93EC0181E0888F9B8D4A
:100200008C8D981305C0E889F989808185FD26C009
:10021000F62E0B8D10E00F5F1F4F0F731127E02E8E
:100220008C8DE8120CC00FB607FCFACFE889F9896B
:10023000808185FFF5CFCE010E94D400F1CF8B8D58
:10024000FE01E80FF11DE35AFF4FF0829FB7F894CB
:100250000B8FEA89FB89808180620AC09FB7F8947E
:10026000EE89FF896083E889F989808183708064E1
:1002700080839FBF81E090E0DF91CF911F910F912C
:10028000FF90EF900895CF93DF93EC01888D882342
:10029000C9F0EA89FB89808185FD05C0A889B989F3
:1002A0008C9186FD0FC00FB607FCF5CF808185FFCE
:1002B000F2CFA889B9898C9185FFEDCFCE010E943C
:1002C000D400E7CFDF91CF91089580E090E0892BB3
:1002D00029F00E94CA0081110C9400000895EFE6F5
:1002E000F0E080818D7F8083E0E7F0E080818D7F8A
:1002F000808310928500109284001092B2001092B8
:100300002801109227010895009769F0FC010190DF
:100310000020E9F73197AF01481B590BBC0187E377
:1003200091E00C945F0080E090E008950E945E07E9
:100330001F920F920FB60F9211242F933F938F931A
:100340009F93AF93BF938091330190913401A0911B
:100350003501B09136013091320123E0230F2D3762
:1003600020F40196A11DB11D05C026E8230F0296B9
:10037000A11DB11D2093320180933301909334016C
:10038000A0933501B093360180912E0190912F01F9
:10039000A0913001B09131010196A11DB11D809352
:1003A0002E0190932F01A0933001B0933101BF91A2
:1003B000AF919F918F913F912F910F900FBE0F9012
:1003C0001F9018951F920F920FB60F9211242F9322
:1003D0003F934F935F936F937F938F939F93AF93CD
:1003E000BF93EF93FF9387E391E00E94D400FF91C6
:1003F000EF91BF91AF919F918F917F916F915F919D
:100400004F913F912F910F900FBE0F901F90189515
:100410001F920F920FB60F9211242F938F939F93D9
:10042000EF93FF93E0914701F09148018081E091C3
:100430004D01F0914E0182FD12C0908180915001DA
:100440008F5F8F7320915101821751F0E09150011D
:10045000F0E0E95CFE4F958F8093500101C08081F0
:10046000FF91EF919F918F912F910F900FBE0F9061
:100470001F9018951F920F920FB60F9211248F9311
:100480009F938091270190912801019690932801D4
:10049000809327018037910528F495B180E2892760
:1004A00085B914C095B180E2892785B98091700023
:1004B0008D7F8093700080916F00826080936F00C9
:1004C00084E590E090938500809384009F918F91C4
:1004D0000F900FBE0F901F9018951F920F920FB69E
:1004E0000F9211242F933F934F935F936F937F93BA
:1004F0008F939F93AF93BF93EF93FF9380E090E030
:10050000A8E4B2E48093290190932A01A0932B01DF
:10051000B0932C0181E080932D010E946F01FF9127
:10052000EF91BF91AF919F918F917F916F915F916B
:100530004F913F912F910F900FBE0F901F901895E4
:100540001F920F920FB60F9211242F933F934F9348
:100550005F936F937F938F939F93AF93BF93EF932B
:10056000FF938091260181110AC081E080932601CA
:100570000E946F0180917000826080937000FF91F3
:10058000EF91BF91AF919F918F917F916F915F910B
:100590004F913F912F910F900FBE0F901F90189584
:1005A0001F920F920FB60F9211242F933F934F93E8
:1005B0005F936F937F938F939F93AF93BF93EF93CB
:1005C000FF938FB7F89460918400709185008FBF7E
:1005D0006F5F7F4F80E090E00E940D0620E030E0EA
:1005E00040E853E40E94C40620E034E244E75BE4C0
:1005F0000E946C0520E030E040E05FE30E94C4060A
:1006000020E030E84BEB54E40E94C40660932901DB
:1006100070932A0180932B0190932C010E946F010B
:1006200081E080932D0110922601FF91EF91BF91FF
:10063000AF919F918F917F916F915F914F913F917A
:100640002F910F900FBE0F901F901895CF93DF93AF
:10065000CDB7DEB7A5970FB6F894DEBF0FBECDBFFE
:10066000789484B5826084BD84B5816084BD85B58D
:10067000826085BD85B5816085BD80916E00816099
:1006800080936E001092810080918100826080933F
:100690008100809181008160809381008091800041
:1006A0008160809380008091B10084608093B1006C
:1006B0008091B00081608093B00080917A00846066
:1006C00080937A0080917A00826080937A00809192
:1006D0007A00816080937A0080917A0080688093AC
:1006E0007A001092C100E0914701F091480182E048
:1006F0008083E0914301F09144011082E091450133
:10070000F09146018FEC808310924F01E0914B01F4
:10071000F0914C0186E08083E0914901F0914A011B
:10072000808180618083E0914901F0914A0180815C
:1007300088608083E0914901F0914A01808180685E
:100740008083E0914901F0914A0180818F7D80830F
:1007500010928100109280008091810088608093C7
:100760008100809181008460809381008CE190E120
:1007700090938900809388001092B1001092B0008D
:100780008091B10081608093B1008091B00082605F
:100790008093B00087EC8093B3008AE08093690077
:1007A00083E08DBB82E191E08AA38AE0882E912CC0
:1007B000A12CB12C80912D01882309F4EBC09FB7A7
:1007C0009BA3F8944090290150902A0160902B013E
:1007D00070902C01A3019201C301B2010E94310764
:1007E000882319F087E191E01AC073016201E8944F
:1007F000F7F82FEF3FEF4FE75FE7C701B6010E9421
:10080000310781110FC02FEF3FEF4FE75FE7C701BF
:10081000B6010E94670518162CF48BE191E00E9446
:100820008401B0C02FEF3FEF4FE75FE4C301B20197
:100830000E94BF0618161CF48FE191E0F0CF2FEF55
:100840003FEF4FE75FECC301B2010E94670587FDF0
:10085000F3CF20E030E0A901C301B2010E94670597
:1008600087FF09C06DE287E391E00E94F60077FA06
:10087000709477F8709410E060E070E080E09FE39F
:10088000EAA11E1740F420E030E040E251E40E946B
:100890006C051F5FF5CFA30192010E94FB042B01A1
:1008A0003C010E94DE05362EC72ED82EF92E19A245
:1008B000262F372F482F592F8E010F5D1F4F0CA366
:1008C0001DA3CA01B901A50194010E943607605D0C
:1008D000F80162938F01211531054105510589F712
:1008E000CF010E948401FAA1FF2309F44BC0632DBC
:1008F0007C2D8D2D9F2D0E940D069B01AC01C30107
:10090000B2010E94FA042B013C016EE287E391E000
:100910000E94F60082E191E0F82E20E030E040E213
:1009200051E4C301B2010E94C4062B013C010E94A4
:10093000DE059B0140E050E019A20CA11DA11B01A6
:100940006A01CA01B901A50194010E943607605DE0
:10095000F80162938F01211531054105510589F791
:10096000CF010E948401B101C6010E940D069B01C6
:10097000AC01C301B2010E94FA042B013C01FA94BC
:10098000F110CBCF83E291E00E948401FBA1FFBF75
:1009900010922D010E9465010DCFE7E3F1E0138273
:1009A000128288EE93E0A0E0B0E084839583A68372
:1009B000B78384E091E09183808385EC90E0958714
:1009C000848784EC90E09787868780EC90E0918B19
:1009D000808B81EC90E0938B828B82EC90E0958B06
:1009E000848B86EC90E0978B868B118E128E138E03
:1009F000148E08955058BB27AA270E9412050C9404
:100A000085060E94770638F00E947E0620F039F4B1
:100A10009F3F19F426F40C9474060EF4E095E7FB5E
:100A20000C946E06E92F0E94960658F3BA176207D7
:100A300073078407950720F079F4A6F50C94B8069F
:100A40000EF4E0950B2EBA2FA02D0B01B9019001E9
:100A50000C01CA01A0011124FF27591B99F0593F2D
:100A600050F4503E68F11A16F040A22F232F342F75
:100A70004427585FF3CF469537952795A795F040C3
:100A80005395C9F77EF41F16BA0B620B730B840BD8
:100A9000BAF09150A1F0FF0FBB1F661F771F881F90
:100AA000C2F70EC0BA0F621F731F841F48F48795E8
:100AB00077956795B795F7959E3F08F0B0CF9395DA
:100AC000880F08F09927EE0F9795879508950E9453
:100AD0004A0608F481E008950E9480050C9485067A
:100AE0000E947E0658F00E94770640F029F45F3F8E
:100AF00029F00C946E0651110C94B9060C947406EE
:100B00000E94960668F39923B1F3552391F3951B40
:100B1000550BBB27AA2762177307840738F09F5F1E
:100B20005F4F220F331F441FAA1FA9F335D00E2E8B
:100B30003AF0E0E832D091505040E695001CCAF7F8
:100B40002BD0FE2F29D0660F771F881FBB1F2617BB
:100B500037074807AB07B0E809F0BB0B802DBF0192
:100B6000FF2793585F4F3AF09E3F510578F00C9461
:100B70006E060C94B9065F3FE4F3983ED4F3869575
:100B800077956795B795F7959F5FC9F7880F911D82
:100B90009695879597F90895E1E0660F771F881F6E
:100BA000BB1F621773078407BA0720F0621B730B21
:100BB000840BBA0BEE1F88F7E09508950E949E06FD
:100BC00088F09F5798F0B92F9927B751B0F0E1F00E
:100BD000660F771F881F991F1AF0BA95C9F714C0BE
:100BE000B13091F00E94B806B1E008950C94B806B7
:100BF000672F782F8827B85F39F0B93FCCF38695F7
:100C000077956795B395D9F73EF490958095709553
:100C100061957F4F8F4F9F4F0895E89409C097FBD0
:100C20003EF490958095709561957F4F8F4F9F4FC3
:100C30009923A9F0F92F96E9BB279395F695879507
:100C400077956795B795F111F8CFFAF4BB0F11F4CA
:100C500060FF1BC06F5F7F4F8F4F9F4F16C0882371
:100C600011F096E911C0772321F09EE8872F762FA7
:100C700005C0662371F096E8862F70E060E02AF0E8
:100C80009A95660F771F881FDAF7880F96958795D4
:100C900097F90895990F0008550FAA0BE0E8FEEFA9
:100CA00016161706E807F907C0F012161306E40730
:100CB000F50798F0621B730B840B950B39F40A2629
:100CC00061F0232B242B252B21F408950A2609F407
:100CD000A140A6958FEF811D811D089597F99F670B
:100CE00080E870E060E008959FEF80EC08950024B4
:100CF0000A941616170618060906089500240A9481
:100D000012161306140605060895092E0394000C06
:100D100011F4882352F0BB0F40F4BF2B11F460FF95
:100D200004C06F5F7F4F8F4F9F4F089557FD9058BE
:100D3000440F551F59F05F3F71F04795880F97FB9F
:100D4000991F61F09F3F79F0879508951216130659
:100D50001406551FF2CF4695F1DF08C01616170688
:100D60001806991FF1CF86957105610508940895BD
:100D7000E894BB2766277727CB0197F908950E944F
:100D80004A0608F48FEF08950E94D7060C94850652
:100D90000E94770638F00E947E0620F0952311F01D
:100DA0000C946E060C94740611240C94B9060E94DF
:100DB000960670F3959FC1F3950F50E0551F629F03
:100DC000F001729FBB27F00DB11D639FAA27F00DA4
:100DD000B11DAA1F649F6627B00DA11D661F829FCB
:100DE0002227B00DA11D621F739FB00DA11D621FB0
:100DF000839FA00D611D221F749F3327A00D611DCD
:100E0000231F849F600D211D822F762F6A2F1124AE
:100E10009F5750409AF0F1F088234AF0EE0FFF1FE1
:100E2000BB1F661F771F881F91505040A9F79E3F38
:100E3000510580F00C946E060C94B9065F3FE4F304
:100E4000983ED4F3869577956795B795F795E7958E
:100E50009F5FC1F7FE2B880F911D9695879597F997
:100E600008950E944A06880B990B0895A1E21A2E54
:100E7000AA1BBB1BFD010DC0AA1FBB1FEE1FFF1F3E
:100E8000A217B307E407F50720F0A21BB30BE40B8E
:100E9000F50B661F771F881F991F1A9469F76095D5
:100EA0007095809590959B01AC01BD01CF0108958F
:100EB000EE0FFF1F0590F491E02D099481E090E082
:0A0EC000F8940C946307F894FFCF38
:100ECA0000000000F6005F008D004301BE009C0098
:100EDA00B000252E3666006E616E00696E66006F80
:060EEA007666000D0A000F
:00000001FF
